:060000000A128A11142906
:10000800F000030EF1000B1913200C1826208C1891
:100018002F208C10710E8300F00E700E0900031350
:100028008312FF3081000B110810881072182028E5
:100038007608870008142328770887008814013079
:10004800F206080003138312E1308F007C308E0023
:10005800A00A0C1008007B1833287B1408007B10BA
:0200680008008E
:100200008A010A140F3982073F3406345B344F34B5
:1002100066346D347D3407347F34673477347C340E
:1002200039345E34793471342621462170214D21D0
:100230005C216B2103138316643092000313831235
:1002400039217B1C3F217B187C211A290317831637
:10025000880189010313831608108810031383167D
:10026000003087000610031383128601870188017E
:10027000A00120080F39F400200E0F39F500740892
:100280000021F60075080021F700061403138316F9
:100290000F138F160F120F14080003138316811209
:1002A00081110115811401140313831203138312A6
:1002B000FF3081000B1108000313831290161016F3
:1002C0009010101403138312E1308F007C308E00E5
:1002D000A00A0C100800031383124E30920008008D
:1002E000031383128B178B160B11031383160C1435
:1002F0000C108C148C1008000030F600F70006106B
:020300000800F3
:04400E00C420FF3F8C
:00000001FF
